:020000041A00E0
:10000000008000102505001A2501001A2901001A98
:100010002D01001A3101001A3501001AFA74FF533C
:10002000000000000000000000000000F112001AB3
:100030003D01001A000000008113001AE513001AA8
:100040007101001A7101001A7101001A000000000C
:100050007101001A7101001A7101001A7101001A70
:100060004121001A7101001A7101001A7101001A70
:100070007101001A7101001A7101001A7101001A50
:100080007101001A7101001A7101001A7101001A40
:100090007101001A7101001A7101001A7101001A30
:1000A0007101001A7101001A7101001A7101001A20
:1000B0007101001A7101001A7101001A7101001A10
:1000C0004882001A00000010E40900004882001A6B
:1000D00000000810000000004882001A0000002004
:1000E000000000004882001A00800020000000008C
:1000F0004882001A00C0002000000000E40900103F
:10010000D0210000000008100000000000000020C6
:1001100000000000008000200000000000C000205F
:1001200000000000FEE700BFFEE700BFFEE700BFE3
:10013000FEE700BFFEE700BFFEE700BFFEE700BF2F
:10014000FEE700BFFEE700BF4AB110B40023C45869
:10015000CC5004339A42FAD85DF8044B704770478C
:1001600029B100231A46C25004339942FBD8704784
:10017000FEE700BFFFFFFFFFFFFFFFFFFFFFFFFFE7
:10018000FFFFFFFFFFFFFFFFFFFFFFFFFFFFFFFF7F
:10019000FFFFFFFFFFFFFFFFFFFFFFFFFFFFFFFF6F
:1001A000FFFFFFFFFFFFFFFFFFFFFFFFFFFFFFFF5F
:1001B000FFFFFFFFFFFFFFFFFFFFFFFFFFFFFFFF4F
:1001C000FFFFFFFFFFFFFFFFFFFFFFFFFFFFFFFF3F
:1001D000FFFFFFFFFFFFFFFFFFFFFFFFFFFFFFFF2F
:1001E000FFFFFFFFFFFFFFFFFFFFFFFFFFFFFFFF1F
:1001F000FFFFFFFFFFFFFFFFFFFFFFFFFFFFFFFF0F
:10020000FFFFFFFFFFFFFFFFFFFFFFFFFFFFFFFFFE
:10021000FFFFFFFFFFFFFFFFFFFFFFFFFFFFFFFFEE
:10022000FFFFFFFFFFFFFFFFFFFFFFFFFFFFFFFFDE
:10023000FFFFFFFFFFFFFFFFFFFFFFFFFFFFFFFFCE
:10024000FFFFFFFFFFFFFFFFFFFFFFFFFFFFFFFFBE
:10025000FFFFFFFFFFFFFFFFFFFFFFFFFFFFFFFFAE
:10026000FFFFFFFFFFFFFFFFFFFFFFFFFFFFFFFF9E
:10027000FFFFFFFFFFFFFFFFFFFFFFFFFFFFFFFF8E
:10028000FFFFFFFFFFFFFFFFFFFFFFFFFFFFFFFF7E
:10029000FFFFFFFFFFFFFFFFFFFFFFFFFFFFFFFF6E
:1002A000FFFFFFFFFFFFFFFFFFFFFFFFFFFFFFFF5E
:1002B000FFFFFFFFFFFFFFFFFFFFFFFFFFFFFFFF4E
:1002C000FFFFFFFFFFFFFFFFFFFFFFFFFFFFFFFF3E
:1002D000FFFFFFFFFFFFFFFFFFFFFFFFFFFFFFFF2E
:1002E000FFFFFFFFFFFFFFFFFFFFFFFFFFFFFFFF1E
:1002F000FFFFFFFFFFFFFFFFFFFFFFFFFFFFFFFF0E
:1003000000B50E4883B003F089FC0D4B0193042324
:100310000093B42200230B490B4800F0A7FB0128EF
:1003200008D04FF0A00383F31188BFF36F8FBFF3A2
:100330004F8FFEE700F0F8FDFEE700BFC87C001A13
:10034000742B0010E47C001AAD03001A10B582B0C3
:10035000044600F02DFE044402E0019B01330193AA
:1003600000F026FEA042F8D302B010BD08B50B483D
:1003700003F054FC0A4B186800F074FC094B186831
:1003800000F070FC084B186800F06CFC2D2001F0A8
:10039000B7FE4FF4FA70FFF7D9FFF7E7287D001A90
:1003A000742B00107C2B0010782B001030B52D48DA
:1003B00083B003F033FC002000F0D4FC2A4B2B491F
:1003C000851ECDE9005304460023B422284800F0DE
:1003D0004DFB012808D04FF0A00383F31188BFF331
:1003E0006F8FBFF34F8FFEE7224B23492348CDE9A0
:1003F0000053B422002300F039FB012808D04FF04D
:10040000A00383F31188BFF36F8FBFF34F8FFEE715
:100410001B4B1C491C48033CCDE90043B42200237C
:1004200000F024FB012808D04FF0A00383F31188CB
:10043000BFF36F8FBFF34F8FFEE7002000F0A6FCE5
:1004400004242A2001F05CFE4FF4FA70FFF77EFFCF
:10045000013CF6D10D4B186803B0BDE8304000F008
:1004600095BC00BFEC7C001A7C2B0010F87C001AB5
:100470009104001A782B0010007D001ACD04001A98
:10048000802B0010087D001A6D03001A742B0010D9
:1004900010B50B4803F0C2FB06242B2001F030FE00
:1004A0004FF4FA70FFF752FF013CF6D1054B186884
:1004B00000F0F4FC044BBDE81040186800F066BC86
:1004C000107D001A742B00107C2B001010B5094809
:1004D00003F0A4FB06242C2001F012FE4FF4FA7066
:1004E000FFF734FF013CF6D1034BBDE8104018681C
:1004F00000F04CBC1C7D001A782B001008B5074892
:1005000003F02AFB00F006FF4FF0A00383F31188ED
:10051000BFF36F8FBFF34F8FFEE700BF347D001A2C
:10052000704700BFF8B572B62549264B26480860CB
:1005300026491960264A274F274E284D284C29481E
:1005400029494FF0FF333B60336013602B60236019
:1005500003600B60536162B6244A254EB2420ED24C
:10056000D2E900450C3252F8040C0028F6D00023E2
:10057000E158E95004339842FAD8B242F0D31D4909
:100580008A4213D20139891A02F1100321F00701BE
:1005900019440832002452E9025020B10023EC50E3
:1005A00004339842FBD808328A42F4D101F08CFD22
:1005B00002F0F8FEFFF7B4FFFFF7A2FE30BFFDE741
:1005C00000310540043105400010DF10FFF7DF0166
:1005D00088E200E080E200E084E200E08CE200E0FB
:1005E00090E200E094E200E098E200E0C000001A2F
:1005F000FC00001A2401001A704700BF704700BFBA
:10060000092303604FF0FF30704700BF5823036099
:100610004FF0FF30704700BF022983BF09230360FA
:100620004FF0FF3001207047582303604FF0FF3038
:10063000704700BF02291FD813442DE9F041074637
:100640005C1E561EC2F10205A6420FD001F03CF816
:10065000431CFBD00D2805EB060806F8010F01D05E
:100660000A28F1D101F030F8404603E013233B6043
:100670004FF0FF30BDE8F081132303604FF0FF30EF
:10068000704700BF02290DD870B51E4643B1D5187A
:10069000013D541E14F8010F01F00CF8AC42F9D1E1
:1006A000304670BD132303604FF0FF30704700BF2A
:1006B000044B054A1868002808BF10460144196019
:1006C000704700BFE4090010B42B001030B4144A86
:1006D00000E01A4613688342FBD354684168151939
:1006E000A84208D04418A3420BD09042036030BC0B
:1006F00018BF10607047214410464418A34251604F
:10070000F3D1084C2468A342EFD0D3E900349042DF
:1007100021440360416030BC18BF1060704700BFC7
:10072000F8290010E80900102DE9F041044600F016
:1007300037FC3D490B68002B39D03C4B1D682C42DF
:100740002FD174B304F1080358071CBF23F007032B
:10075000083333B3DFF8E880D8F800609E4220D336
:10076000334A146803E0276827B122463C46606894
:100770009842F8D30968A14213D021681768116024
:10078000C21A102A07F1080734D9E01841072CD003
:100790004FF0A00383F31188BFF36F8FBFF34F8F28
:1007A000FEE700F0B3FC00273846BDE8F081214B9E
:1007B000214A224F1E4E5D0718BF073322F0070261
:1007C00018BF23F007031E4D0A601846D31A3B607A
:1007D0002B60164F0025C2E9005575604FF00045AB
:1007E0000260436030603D60A9E742606360FFF7EC
:1007F0006DFF606811490A68361A00230543964266
:10080000C4E9003538BF0E60C8F8006000F07EFC17
:100810007B07C9D04FF0A00383F31188BFF36F8F1C
:10082000BFF34F8FFEE700BFE8090010EC2900106E
:10083000F8290010EC090010E4290010F429001038
:10084000F0290010D0B1194A50F8043C1268134244
:100850000BD050F8081C91B14FF0A00383F311881E
:10086000BFF36F8FBFF34F8FFEE74FF0A00383F30B
:100870001188BFF36F8FBFF34F8FFEE7704723EAF6
:10088000020310B540F8043C044600F089FB084A16
:1008900054F8043C1168A4F108000B441360FFF7FE
:1008A00015FFBDE8104000F031BC00BFEC2900107E
:1008B000F029001000F108034FF0FF3100228160A1
:1008C00002604360C0E90333704700BF0023036147
:1008D000704700BF4368026810B49C688C609C68D5
:1008E0004B600132616099605DF8044B0861026001
:1008F000704700BF036910B4D0E901125C688A60D8
:100900008442516008BF5A601A685DF8044B0021A8
:10091000013A01611A601868704700BF80B5164C33
:10092000164F174EDFF85C80DFF85CA04FF080595F
:1009300014E000F0EFFCFB68DD68281DFFF7DAFF2C
:100940003368013B33602368013B236000F004FD02
:10095000286BFFF777FF2846FFF774FF2368002B0B
:10096000E7D1D8F80030012BF8D9CAF80090BFF3CE
:100970004F8FBFF36F8FF1E79C2A0010102B0010F0
:10098000982A00100C2A001004ED00E068B10B4B0F
:1009900042699A4201D000207047806A084B984211
:1009A000F9D0B0FA80F0400970474FF0A00383F30C
:1009B0001188BFF36F8FBFF34F8FFEE7FC2A001043
:1009C000E42A0010034A044B1268D268D2685268C5
:1009D0001A607047042A0010DC2A00101F4B10B563
:1009E00000221F4C1A6023681B6B1A68B2F1A53FE6
:1009F00003D15A68B2F1A53F27D02068216834316D
:100A0000FFF77CFD174B1B68B3FA83F3DBB2C3F12E
:100A10001F0303EB83039B001349CA58C81842B94C
:100A20004FF0A00383F31188BFF36F8FBFF34F8F95
:100A3000FEE742680833526842600B449A4204BFA2
:100A400052684260D368236010BD9A68B2F1A53F36
:100A5000D3D1DB68B3F1A53FCFD1D3E7282B00106A
:100A6000002A0010AC2A00100C2A00102DE9F047D3
:100A70009500074628460E469846FFF755FE002883
:100A800000F0878081465020FFF74EFE0446002884
:100A900000F08380C0F830902A46A521484602F035
:100AA000FFFF236B043D1D4425F00705731E65649D
:100AB0000F3604F1330113F8012F01F8012F0AB1A9
:100AC000B342F8D1089E062E28BF06264FF0000A32
:100AD00004F10409E662484684F843A0FFF7F6FEF5
:100AE000C6F1070604F11800FFF7F0FEC4F848A0AD
:100AF000A661246184F84CA06462424639462846C7
:100B000000F0DAFB099B206003B11C6000F002FCDE
:100B1000404A414F1368013313603B68002B42D0B9
:100B2000DFF83881E36AD8F8002022B93A68D26A3F
:100B30009A4298BF3C60394ADFF824C11668DCF855
:100B400000E0374801252E44166005FA03F203EB56
:100B5000830342EA0E0200EB83004946CCF80020F2
:100B6000FFF7B8FE00F0F8FBD8F8003073B13A6830
:100B7000E36AD26A9A4209D22A4B4FF080521A6035
:100B8000BFF34F8FBFF36F8F284600E02846BDE8C4
:100B9000F0874FF0FF30BDE8F0874846FFF752FE80
:100BA0004FF0FF30F3E73C601368012B03D0E36A9A
:100BB000DFF8A880BFE71A481B4E1C4DDFF89C8069
:100BC000FFF778FE1A48FFF775FE1A48FFF772FE26
:100BD0001948FFF76FFE1948FFF76CFE1848FFF73A
:100BE00069FE1848FFF766FE3046FFF763FE2846A9
:100BF000FFF760FE1448FFF75DFE1448FFF75AFE4A
:100C00001348FFF757FE134B134A16601D60E36A43
:100C100091E700BF982A0010002A0010A82A0010AF
:100C20000C2A001004ED00E0B02A0010C42A0010C5
:100C3000202A0010342A0010482A00105C2A0010D4
:100C4000702A0010842A0010E42A0010102B0010D3
:100C5000FC2A0010082A0010042A0010F82A0010AC
:100C6000AC2A001070B50446324D00F053FB002C46
:100C700048D0261D3046FFF73DFE30B9E16A2E4AC6
:100C800001EB81039B00D3585BB3A36A1BB104F152
:100C90001800FFF72FFE294A29681368A14203F1C3
:100CA0000103136025D0264A206B1368013B1360B3
:100CB000FFF7C8FD2046FFF7C5FD224B1B681B68E8
:100CC00053B1FFF77FFE00F047FB1F4B1B6813B1CA
:100CD0002B68A34218D070BD1C4B4FF0FF321A6036
:100CE000F1E71B48012203688A4023EA02030360FC
:100CF000CBE731461748FFF7EDFD174A136801337C
:100D00001360E0E72C68B4E7144B1B6843B14FF065
:100D1000A00383F31188BFF36F8FBFF34F8FFEE7FC
:100D20000F4B4FF080521A60BFF34F8FBFF36F8F9E
:100D300070BD00BF002A00100C2A0010A82A001065
:100D4000982A0010042A0010F82A0010DC2A00104B
:100D5000AC2A0010102B00109C2A0010A42A0010AE
:100D600004ED00E010B5044600F0D4FA24B1E46AC2
:100D700000F0F2FA204610BD034B1C68E46A00F054
:100D8000EBFA204610BD00BF002A001070B50446E3
:100D9000374D00F0BFFA002C47D0261D3046FFF734
:100DA000A9FD30B9E16A334A01EB81039B00D358B6
:100DB00043B3A36A1BB104F11800FFF79BFD314652
:100DC0002D482E4EFFF786FD94F84C30012B04BFC2
:100DD000002384F84C3000F0BFFA3368D3B92B6895
:100DE000A34200D070BD336833B3254B1B68002B82
:100DF0002FD04FF0A00383F31188BFF36F8FBFF3A1
:100E00004F8FFEE71F48012203688A4023EA02034E
:100E10000360CEE700F07EFA1B4B1B681B6833B102
:100E2000FFF7D0FD00F098FAD9E72C68B5E7174B2B
:100E30004FF0FF321A60F5E70F49154A096812684A
:100E400091420FD00E4B1B6873B1124B01221A60F6
:100E500070BD114B4FF080521A60BFF34F8FBFF33C
:100E60006F8F70BD2B6070BDBDE87040FFF7B6BDE1
:100E7000002A00100C2A0010FC2A0010F82A00108A
:100E8000A42A0010AC2A0010042A0010DC2A00104A
:100E9000982A0010282B001004ED00E0F8B578B176
:100EA0001D4D2B6883420AD0044600F033FA2046D9
:100EB000FFF76CFD68B9BDE8F84000F04DBAF8BD29
:100EC0004FF0A00383F31188BFF36F8FBFF34F8FF1
:100ED000FEE7271D114E3846FFF70CFDE26AD6F8F3
:100EE00000C00F480123934002EB820243EA0C0347
:100EF00000EB820039463360FFF7ECFC2B68E26AB6
:100F0000DB6A9A42D7D3074B4FF080521A60BFF387
:100F10004F8FBFF36F8FCEE7002A0010AC2A00106E
:100F20000C2A001004ED00E030B583B0164B01939D
:100F30000024009423465A2214491548FFF796FDD1
:100F4000012803D0013016D003B030BD4FF0A0030C
:100F500083F31188BFF36F8FBFF34F8F0D490E4A94
:100F60000E4B4FF0FF350D6010601C6003B0BDE804
:100F7000304000F06BBA4FF0A00383F31188BFF349
:100F80006F8FBFF34F8FFEE7D82A0010647D001AE1
:100F90001D09001ADC2A0010F82A0010242B00106A
:100FA000024A136801331360704700BFA42A00107F
:100FB000014B1868704700BF242B00102DE9F84F33
:100FC000474B1B68002B48D1464B1E6801361E60FC
:100FD000002E4FD0DFF82CB1DBF80020B24260D8F1
:100FE000414D424FDFF8208100242DE02A68D2686D
:100FF000D2F80C90D9F8041009F1040A8E42504638
:1010000067D3FFF777FCD9F8281009F1180009B168
:10101000FFF770FC364AD9F82C001368012101FA59
:1010200000FC00EB8000514607EB80004CEA030C0B
:10103000C2F800C0FFF74EFCD8F80000D9F82C1019
:10104000C26A914228BF01242A681268002ACDD1C1
:101050004FF0FF32CBF8002027E0264A1368013317
:1010600013600024244B1B68002B0CBF204601207A
:10107000BDE8F88F1C4D2B681B680BBB1F4B296804
:101080001F4A1868286019601368013313602B68C1
:101090001B680BBBDFF86CB04FF0FF32CBF80020C1
:1010A0009AE7124FDFF860800024D8F80030DB6A3E
:1010B00003EB83039B00FB58022B28BF0124D1E7DD
:1010C0004FF0A00383F31188BFF36F8FBFF34F8FEF
:1010D000FEE7CBF80010E8E7FFF774FC7AE700BF03
:1010E000A42A0010242B0010042A00100C2A00103F
:1010F000AC2A0010A02A0010282B0010082A00108B
:10110000E02A0010DC2A0010002A00102DE9F84F18
:10111000384C236843B94FF0A00383F31188BFF321
:101120006F8FBFF34F8FFEE700F0F4F82368013BA9
:1011300023602468002C4AD12F4B1B68002B46D01B
:101140002E4DDFF8D0A02E4EDFF8CC90DFF8CCB0DB
:10115000DAF80030012723B3DAF80C30DC6804F148
:10116000040804F11800FFF7C5FB4046FFF7C2FB77
:10117000E06A326807FA00F300EB8000134341464F
:1011800009EB80003360FFF7A5FBDBF80030E26A73
:10119000DB6A9A42DCD32F60DAF800300127002B9B
:1011A000DAD13CB1174B1B681B6803BB164B4FF0E1
:1011B000FF321A60154E34683CB10127FFF7FEFE7E
:1011C00000B12F60013CF9D134602B682BB90024A9
:1011D00000F0C2F82046BDE8F88F0D4B4FF080526A
:1011E0001A60BFF34F8FBFF36F8F0124F0E7FFF753
:1011F000E9FBDFE7A42A0010982A0010282B001032
:10120000AC2A0010042A0010DC2A0010A02A0010CA
:1012100004ED00E0E42A00100C2A0010002A00105F
:10122000044B1B681BB1044B01221A607047FFF787
:10123000D5BB00BFA42A0010282B00100848006866
:10124000006880F308884FF0000080F3148862B6CD
:1012500061B6BFF34F8FBFF36F8F00DF00BF000099
:1012600008ED00E0DFF80C00016841F47001016056
:101270007047000088ED00E00E4B1B6882B0002232
:101280000133019208D04FF0A00383F31188BFF31C
:101290006F8FBFF34F8FFEE74FF0A00383F31188EA
:1012A000BFF36F8FBFF34F8F019B002BFCD002B0B9
:1012B000704700BF0000001030B421F001014FF072
:1012C0008075074C40F80C4C6FF0020340F8202C5E
:1012D00040E9021540F8243C30BC4438704700BF58
:1012E0007912001AFFFFFFFFFFFFFFFFFFFFFFFF65
:1012F000074B19680868B0E8F04F80F30988BFF31E
:101300006F8F4FF0000080F311887047AFF30080BB
:10131000002A00104FF0A00383F31188BFF36F8FF2
:10132000BFF34F8F0A4A13680133012B136000D0BB
:101330007047084B1B6813F0FF0FF9D04FF0A00364
:1013400083F31188BFF36F8FBFF34F8FFEE700BFAA
:101350000000001004ED00E0084A136843B94FF0A4
:10136000A00383F31188BFF36F8FBFF34F8FFEE7A6
:10137000013B13600BB983F3118870470000001024
:10138000EFF30980BFF36F8F154B1A681EF0100F33
:1013900008BF20ED108A20E9F04F10602DE9090008
:1013A0004FF0A00080F31188BFF34F8FBFF36F8F12
:1013B000FFF736FF4FF0000080F3118809BC196871
:1013C0000868B0E8F04F1EF0100F08BFB0EC108AAC
:1013D00080F30988BFF36F8F704700BFAFF30080C1
:1013E000002A001008B54FF0A00383F31188BFF363
:1013F0006F8FBFF34F8FFFF7E1FD18B1034B4FF035
:1014000080521A60002383F3118808BD04ED00E0C8
:1014100030B4094A094D0A4B0A4C0B4800211160AF
:1014200029601B68A4FB03139B09013B0721036090
:1014300030BC1160704700BF10E000E018E000E031
:10144000882B0010D34D621014E000E03A4B3B4A69
:101450001968914241D01A68394B9A4234D010B57C
:10146000384B394C1A78394982B0D2B2FF200192F8
:1014700018701B78DBB28DF803309DF803309DF8AF
:10148000032003F0A003072012062370086048BF62
:10149000062201D40FE002469DF803305B00DBB268
:1014A0008DF803309DF803301B0602F1FF30F2D4B3
:1014B000042A1BD00A604FF0A00383F31188BFF306
:1014C0006F8FBFF34F8FFEE74FF0A00383F31188B8
:1014D000BFF36F8FBFF34F8FFEE74FF0A00383F38F
:1014E0001188BFF36F8FBFF34F8FFEE7019A154846
:1014F000174BD2B24FF480640C6002701A6842F449
:1015000060021A601A6842F060421A60FFF780FFBA
:10151000104B00241C60FFF7A5FE0F4A136843F030
:1015200040431360FFF78AFEFFF77AFEFFF7A4FE41
:10153000204602B010BD00BF00ED00E071C20F41B7
:1015400070C20F4100E400E02C2B0010302B001083
:1015500020ED00E00000001034EF00E010B5074C73
:10156000204600F03BF920464FF4E13100F06AF9E3
:1015700003220123E260E36510BD00BF00100C40B0
:10158000F0B583B0FFF7EAFF404800F049FD404A5C
:10159000002102F112050323012403E012F8023CAA
:1015A00012F8011C9B0003F1804303F5762304FA33
:1015B00001F11868023220EA010195421960EDD16B
:1015C00069463448344C00F0C3F96946334A31481F
:1015D00000F0F0F9002269462E4800F023FA204678
:1015E00000F04CFD63682E4923F004036360236818
:1015F00023F0FF0343F007032360204600F012FDB1
:10160000636843F002036360002000F0C1F8254BDB
:10161000254940F60802C3F8842C002000F0C8F8E1
:101620002249DFF868E0002401F10A0C2746052270
:10163000012602E08A78CC780231930003F18043DE
:1016400003F576230EEB42121D6806FA04F02843D8
:101650008C4518601755EDD1154A0421951D0023BE
:1016600001249B0003F1804303F5762304FA01F182
:101670001868954220EA0101196003D09378D17867
:101680000232EEE700F01AFC03B0F0BD00400F405C
:10169000867D001A00300E4000500C40801A060073
:1016A000A08601000060084040420F00787D001ACB
:1016B000707D001A034A53699B06FCD5C0B21060C6
:1016C000704700BF00100C40044B5A69D20746BF58
:1016D0001868C0B24FF0FF30704700BF00100C40D8
:1016E000FFF73CBF10B5124C1249D4F8203123F457
:1016F000704343F41043C4F82031D4F8243123F468
:10170000704343F41043C4F824310122062000F052
:10171000DFFB01231A4618460F2100F04FFB6368D8
:1017200023F00C036360636843F00303636010BD40
:101730000030044000CB280C0C4B30B444200C4D3E
:1017400003F174040022022105E013F8041C13F8CD
:10175000032C33F8020C02EB41120433A34245F888
:101760002200F2D130BCFFF7BDBF00BFA07D001A40
:1017700000600840012908D1044BC0EBC00003EB16
:1017800080000269137D042BFCD070470400001018
:1017900038B5C0EBC000054D84002B19988800F0C7
:1017A00047FB2B596C229A6138BD00BF0400001022
:1017B00070B5C0EBC000084E850073190C469888C0
:1017C00000F050FB7359B0FBF4F042081A6119693C
:1017D000401A586170BD00BF0400001010B5174BCF
:1017E000984282B0044627D003F5805398421DD01A
:1017F000134884420CBF8220812001231A461946D7
:1018000000F0FCFA0E4A002307219442A160E36530
:101810006360E3602362E3646365236508D00322A9
:101820001023E260A362019B02B010BDA220E4E796
:101830002361A3690193F2E7A120DEE700100C40C9
:10184000002008402DE9F04F3F4B89B098420790A7
:101850008B4675D003F58053984201466DD03B48C6
:1018600081420CBF4FF4D1704FF4E17000F0FAFAEE
:1018700001270309020700260690059304920296A9
:101880009A4690460197CDF80CB04FF0FF39039D72
:10189000002406E0484500D889B90134BC425D44C3
:1018A0001CD02A4600234046514601F0E9F80028A2
:1018B00003460A46EEDA43424B45EED84A1C110C69
:1018C000EBD1022A01D8002CE7D1BBB1CDE90174DC
:1018D0000134BC42994616465D44E2D1049B18EBA4
:1018E0000308059B4AEB030A039B671C5B44102F0C
:1018F0000393CCD1EEB1DDE9017432460799069D20
:10190000CB6843F08003CB60D3B20B60130A4B600B
:1019100008463B01C968DBB2234321F080012E0950
:101920003C44C160836207FB06F602FB04F4B6FB8D
:10193000F4F6304609B0BDE8F08F4FF4B17095E78A
:101940004FF4C17092E700BF00100C400020084027
:1019500070B5154D0123A8420CBF042503250E4682
:1019600004461A461946284600F048FA00230F4A52
:10197000E3602846B380326000F074FA400000F55E
:1019800086000B4A337900F50E50A2FB0020000DB3
:101990005B04013803F46023C0B243EA002040F442
:1019A0000010206070BD00BF00400E40801A06008D
:1019B0000D08811E2DE9F843066891F805900A602C
:1019C0000446174891F8048026F46F2684420CBF21
:1019D000042003200F46154626F4706600F042FAF4
:1019E000B9F1000F16D0C8F10B085FFA88F205FBB9
:1019F00002F53B795B0405EB400003F460236D00C6
:101A0000B0FBF5F001383343C0B243EA0023236052
:101A1000BDE8F88305EB850205EB4205E9E700BF69
:101A200000400E400A710A68FFF7C4BF2DE9F04F6D
:101A30000B6883B013F080020090019244D023F031
:101A400040030B604FF0000E4E69DFF88480DFF832
:101A500084B0DDF800A0012740F201194FF0000C1E
:101A60000CF1010C34460122BEF1000F27D002FA1E
:101A70000CF306FB03F3B3FBF7F3434512D95B45C5
:101A800014D80198F0B923FA0CF50098401B0028EF
:101A9000B8BF4042504505D2C1E9027CC1E90653B6
:101AA0000A61824601324A453444DDD1BCF1040F5B
:101AB000D6D10137052FD1D103B0BDE8F08FB4FBEB
:101AC000F7F3DAE71D46E0E703F0400EBCE700BF9E
:101AD000FF5E4C0900D0121382B00E4A4FF47A73A5
:101AE00001939369906923F00201884218BF9161C4
:101AF00009490A4A096823F003039142054A88BF4D
:101B000043F004039361019B5A1E0192002BFAD10A
:101B100002B0704700000540987D001AFF2C31018B
:101B2000102841D8DFE800F03D0C0E18234026298C
:101B30002C2F40403134373A0900042000F012B90C
:101B40001A4870471A4B1B48D3F82C3103F007038F
:101B5000042B08BF00207047154B174AD3F82C31CF
:101B6000144803F00703042B08BF10467047134BBB
:101B700018687047124B18687047124B1868704706
:101B8000104B5868704700F0BDB8002000F0EAB86C
:101B9000012000F0E7B8022000F0E4B8032000F0D4
:101BA000E1B84FF40040704700207047001BB700B9
:101BB0000030044040787D0180F0FA026C7D001A0C
:101BC000987D001A342B00102DE9F041054698B09D
:101BD00008790C46FFF7A4FF464B474A60612B4447
:101BE000934200F28380064600287FD0B5FBF0F3D5
:101BF00042492361802222608D424FF00002C4E9F5
:101C0000022203D903FB00F2AA424AD05C2200213F
:101C100001A801F045FF23798DF804308022694640
:101C2000284605960092FFF701FF069B9D4240D093
:101C3000109A61691591EB1A83EAE37622F040026B
:101C40002779109210A92846A6EBE3768DF8447008
:101C5000FFF7ECFE169B9D4210D0294AEB1A83EA4F
:101C6000E3779542A7EBE37732D90E9BED1A002D6F
:101C7000B8BF6D42AE421EDCBE421ADD10AE0FCEC2
:101C800025460FC596E80F0085E80F00A2686AB3E5
:101C90002369013AA2604BB3E26822B1013AE260E3
:101CA00001E0904222D8013B2361002018B0BDE83A
:101CB000F0816E46E3E7AF42E0DB0DF120084546D8
:101CC0000FCD26460FC695E80F0086E80F00DDE72A
:101CD0000DF1200863690D93402241462846089281
:101CE000FFF7A4FE0E9B9D42C0D1E8E74FF0FF3006
:101CF000DCE700BF103A6BFF1005940BFF5E4C0948
:101D000080778E0630B5154D6C6C83B0C4F30360DC
:101D1000FFF706FF124B01932B6C13F0010319D050
:101D200002ABC4F301211944A20942EAD41211F80A
:101D3000041CC4F30133C4F3074401330134B0FB82
:101D4000F3F0D3075CBF4900B4FBF1F400FB04F0EF
:101D500003B030BD184603B030BD00BF00000540E1
:101D60000102040838B5830003F1804303F5A02382
:101D70000446986C9D6CC20754BFC0F304601120E8
:101D8000FFF7CEFE034B1B5D03EA95030133B0FB67
:101D9000F3F038BD107E001A1B2809D8064B8000CE
:101DA00003445868C30703D4C0F30460FFF7B8BE08
:101DB0001120FFF7B5BE00BF5800054030B48400C5
:101DC00004F1804404F5A0241B28E56D0ED81129E8
:101DD0000AD0094828400AB140F400600BB140F035
:101DE000010040EA0160E06530BC704745F0010544
:101DF000E56530BC704700BFFEF7FFE000290CBF6F
:101E0000012103210AB141F00401022B08BF41F076
:101E10002001B0F5A17F27BFA0F59170024B034BC5
:101E2000203043F830107047002005400010054076
:101E3000B0F5A17F07D30A4BC00003441A6842F0F3
:101E400001021A607047C00000F1804000F5A22036
:101E5000D0F8003143F00103C0F80031704700BFF3
:101E6000F0160540B0F5A17F2BBF114B114BA0F52B
:101E7000917200F1200210B553F8324014F00103C2
:101E800001D1184610BD0C4B0A211A8882420AD88B
:101E90005A88824207D30846FFF77EFF14F0E00F0E
:101EA000F0D0400810BD063319791C29EDD1F2E7B6
:101EB0000020054000100540187E001A08B5692072
:101EC000FFF7D0FF014B186008BD00BF882B001042
:101ED000F0B58BB04CF25033062804460D4616463A
:101EE000019300F090800023012221460420FFF797
:101EF00065FF484A536C43F00103536402A9284626
:101F00008DF80C40FFF760FE434B9D424ED80024F5
:101F1000029905982546069B9DF80C70049A1B04AF
:101F200043EA076343EA002343EA02330B43394A97
:101F300043F40063536413461A6CD207FCD50023A4
:101F4000012209210420FFF739FF002D33D04CF284
:101F500050330193019B5A1E0192002BFAD1029A31
:101F6000059B9DF80C400698049942F0800242EAD5
:101F7000032343EA046343EA004343EA0133254968
:101F8000029243F400634B6476B1244C012104F1C6
:101F90004405002002E0207961790434E378A278D6
:101FA000FFF70CFFA542F6D10BB0F0BD029911F07E
:101FB00040041FD0FEE7002CE6D04CF250330193D2
:101FC000019B5A1E0192002BFAD1059A029B9DF8A3
:101FD0000C4006980499013A43EA022343EA046359
:101FE00043EA004343EA01330A49059243F400639C
:101FF0004B64C9E711F08005059807D021F08001F6
:102000000291012587E7FFF767FD6CE70130059036
:10201000012480E70000054080778E06847E001A48
:10202000704700BFF8B5144B074640F202200E4639
:102030009F4208BF4FF4F170FFF714FF731C18D0D4
:1020400002250022541C05FB04F3B0FBF3F39E426F
:1020500008D3120292B23B6823F47F431A433A60DA
:102060003D61F8BDFF2C02D902350022EAE7224685
:10207000E8E700220225EEE700500C40104B9842A2
:1020800010B5044616D08320FFF7D2FE40F202209E
:10209000FFF7CEFE63680B4923F0040363602368F7
:1020A00023F0FF0343F0070323602046BDE8104000
:1020B000FFF7B8BFA520FFF7BBFE4FF4F170E7E7CD
:1020C00000500C40A08601000A4A0B4908B50B4B92
:1020D00091601B6903F47F63202B05D1D2F888300F
:1020E00043F47003C2F88830FFF726FBBDE80840D0
:1020F000FFF746BA00ED00E00000001A30EF00E004
:10210000831CDBB2012B15D90B490C4A00EB800074
:10211000014430B491F903300C7902EB4315D9B284
:102120002B5D02EB4112B3FA83F35B0913550120D7
:1021300030BC704700207047CC7E001A00400F4032
:10214000034B044A1B6810681B68DB68184700BF14
:102150008C2B00103C2B001081F0004102E000BFEE
:1021600083F0004330B54FEA41044FEA430594EA57
:10217000050F08BF90EA020F1FBF54EA000C55EA92
:10218000020C7FEA645C7FEA655C00F0E2804FEA63
:102190005454D4EB5555B8BF6D420CDD2C4480EA45
:1021A000020281EA030382EA000083EA010180EA75
:1021B000020281EA0303362D88BF30BD11F0004FC3
:1021C0004FEA01314FF4801C4CEA113102D04042F9
:1021D00061EB410113F0004F4FEA03334CEA133334
:1021E00002D0524263EB430394EA050F00F0A7804C
:1021F000A4F10104D5F1200E0DDB02FA0EFC22FA47
:1022000005F2801841F1000103FA0EF2801843FA3A
:1022100005F359410EE0A5F120050EF1200E012A2B
:1022200003FA0EFC28BF4CF0020C43FA05F3C01869
:1022300051EBE37101F0004507D54FF0000EDCF1E2
:10224000000C7EEB00006EEB0101B1F5801F1BD38B
:10225000B1F5001F0CD349085FEA30004FEA3C0C8F
:1022600004F101044FEA445212F5800F80F09A8085
:10227000BCF1004F08BF5FEA500C50F1000041EB89
:10228000045141EA050130BD5FEA4C0C404141EB8D
:10229000010111F4801FA4F10104E9D191F0000FB4
:1022A00004BF01460020B1FA81F308BF2033A3F137
:1022B0000B03B3F120020CDA0C3208DD02F1140C2E
:1022C000C2F10C0201FA0CF021FA02F10CE002F169
:1022D0001402D8BFC2F1200C01FA02F120FA0CFC62
:1022E000DCBF41EA0C019040E41AA2BF01EB0451AB
:1022F000294330BD6FEA04041F3C1CDA0C340EDCA9
:1023000004F11404C4F1200220FA04F001FA02F3EB
:1023100040EA030021FA04F345EA030130BDC4F1A9
:102320000C04C4F1200220FA02F001FA04F340EA9E
:102330000300294630BD21FA04F0294630BD94F04F
:10234000000F83F4801306BF81F480110134013D36
:102350004EE77FEA645C18BF7FEA655C29D094EAA7
:10236000050F08BF90EA020F05D054EA000C04BF25
:102370001946104630BD91EA030F1EBF0021002010
:1023800030BD5FEA545C05D14000494128BF41F0AF
:10239000004130BD14F580043CBF01F5801130BD13
:1023A00001F0004545F0FE4141F470014FF000009E
:1023B00030BD7FEA645C1ABF194610467FEA655C4F
:1023C0001CBF0B46024650EA013406BF52EA0335F1
:1023D00091EA030F41F4002130BD00BF90F0000FDF
:1023E00004BF0021704730B54FF4806404F132041B
:1023F0004FF000054FF0000150E700BF90F0000FD4
:1024000004BF0021704730B54FF4806404F13204FA
:1024100010F0004548BF40424FF000013EE700BFCA
:1024200042004FEAE2014FEA31014FEA02701FBF5A
:1024300012F07F4393F07F4F81F06051704732F08C
:102440007F4208BF704793F07F4F04BF41F40021E3
:10245000704730B54FF4607401F0004521F0004141
:102460001CE700BF50EA010208BF704730B54FF0CB
:1024700000050AE050EA010208BF704730B511F0CC
:10248000004502D5404261EB41014FF4806404F104
:1024900032045FEA915C3FF4D8AE4FF003025FEA8A
:1024A000DC0C18BF03325FEADC0C18BF033202EB0E
:1024B000DC02C2F1200300FA03FC20FA02F001FA68
:1024C00003FE40EA0E0021FA02F11444BDE600BF0B
:1024D00070B54FF0FF0C4CF4E06C1CEA11541DBFBA
:1024E0001CEA135594EA0C0F95EA0C0F00F0DEF885
:1024F0002C4481EA030621EA4C5123EA4C5350EA6A
:10250000013518BF52EA033541F4801143F48013BA
:1025100038D0A0FB02CE4FF00005E1FB02E506F04B
:102520000042E0FB03E54FF00006E1FB03569CF0A0
:10253000000F18BF4EF0010EA4F1FF04B6F5007FA6
:1025400064F5407404D25FEA4E0E6D4146EB060618
:1025500042EAC62141EA55514FEAC52040EA5E50A1
:102560004FEACE2EB4F1FD0C88BFBCF5E06F1ED84B
:10257000BEF1004F08BF5FEA500E50F1000041EB82
:10258000045170BD06F0004646EA010140EA02002F
:1025900081EA0301B4EB5C04C2BFD4EB0C0541EA51
:1025A000045170BD41F480114FF0000E013C00F366
:1025B000AB8014F1360FDEBF002001F0004170BD8A
:1025C000C4F10004203C35DA0C341BDC04F11404A3
:1025D000C4F1200500FA05F320FA04F001FA05F22F
:1025E00040EA020001F0004221F0004110EBD370FC
:1025F00021FA04F642EB06015EEA430E08BF20EA28
:10260000D37070BDC4F10C04C4F1200500FA04F3CA
:1026100020FA05F001FA04F240EA020001F000415C
:1026200010EBD37041F100015EEA430E08BF20EACF
:10263000D37070BDC4F1200500FA05F24EEA020E17
:1026400020FA04F301FA05F243EA020321FA04F046
:1026500001F0004121FA04F220EA020000EBD370FD
:102660005EEA430E08BF20EAD37070BD94F0000FFD
:102670000FD101F00046400041EB010111F4801F31
:1026800008BF013CF7D041EA060195F0000F18BFE2
:10269000704703F00046520043EB030313F4801F1E
:1026A00008BF013DF7D043EA0603704794EA0C0FD8
:1026B0000CEA135518BF95EA0C0F0CD050EA4106EE
:1026C00018BF52EA4306D1D181EA030101F000416B
:1026D0004FF0000070BD50EA410606BF1046194693
:1026E00052EA430619D094EA0C0F02D150EA01369F
:1026F00013D195EA0C0F05D152EA03361CBF1046E0
:1027000019460AD181EA030101F0004141F0FE417E
:1027100041F470014FF0000070BD41F0FE4141F402
:10272000780170BD70B54FF0FF0C4CF4E06C1CEA02
:1027300011541DBF1CEA135594EA0C0F95EA0C0FB7
:1027400000F0A7F8A4EB050481EA030E52EA033572
:102750004FEA013100F088804FEA03334FF0805593
:1027600045EA131343EA12634FEA022245EA1115C0
:1027700045EA10654FEA00260EF000419D4208BF71
:10278000964244F1FD0404F5407402D25B084FEA1E
:102790003202B61A65EB03055B084FEA32024FF4CA
:1027A00080104FF4002CB6EB020E75EB030E22BF27
:1027B000B61A754640EA0C005B084FEA3202B6EBE7
:1027C000020E75EB030E22BFB61A754640EA5C0096
:1027D0005B084FEA3202B6EB020E75EB030E22BF26
:1027E000B61A754640EA9C005B084FEA3202B6EB27
:1027F000020E75EB030E22BFB61A754640EADC00E6
:1028000055EA060E18D04FEA051545EA16754FEA47
:1028100006164FEAC30343EA52734FEAC2025FEA65
:102820001C1CC0D111F4801F0BD141EA00014FF0F4
:1028300000004FF0004CB6E711F4801F04BF0143C5
:102840000020B4F1FD0C88BFBCF5E06F3FF6AFAEE1
:10285000B5EB030C04BFB6EB020C5FEA500C50F171
:10286000000041EB045170BD0EF0004E4EEA1131F4
:1028700014EB5C04C2BFD4EB0C0541EA045170BDFB
:1028800041F480114FF0000E013C90E645EA060E3F
:102890008DE60CEA135594EA0C0F08BF95EA0C0F6D
:1028A0003FF43BAF94EA0C0F0AD150EA01347FF4B5
:1028B00034AF95EA0C0F7FF425AF104619462CE78C
:1028C00095EA0C0F06D152EA03353FF4FDAE1046EF
:1028D000194622E750EA410618BF52EA43067FF440
:1028E000C5AE50EA41047FF40DAF52EA43057FF4D0
:1028F000EBAE12E74FF0FF3C06E000BF4FF0010CDB
:1029000002E000BF4FF0010C4DF804CD4FEA410C3E
:102910007FEA6C5C4FEA430C18BF7FEA6C5C1BD00B
:1029200001B050EA410C0CBF52EA430C91EA030F8C
:1029300002BF90EA020F0020704710F1000F91EAE9
:10294000030F58BF994208BF90422CBFD8176FEAB7
:10295000E37040F0010070474FEA410C7FEA6C5C85
:1029600002D150EA013C07D14FEA430C7FEA6C5C8C
:10297000D6D152EA033CD3D05DF8040B704700BFB8
:102980008446104662468C461946634600E000BF06
:1029900001B5FFF7B7FF002848BF10F1000F01BDD8
:1029A0004DF808EDFFF7F4FF0CBF012000205DF8A3
:1029B00008FB00BF4DF808EDFFF7EAFF34BF012028
:1029C00000205DF808FB00BF4DF808EDFFF7E0FFC1
:1029D00094BF012000205DF808FB00BF4DF808ED12
:1029E000FFF7CEFF94BF012000205DF808FB00BF79
:1029F0004DF808EDFFF7C4FF34BF012000205DF85B
:102A000008FB00BF4FEA410C7FEA6C5C02D150EA40
:102A1000013C0AD14FEA430C7FEA6C5C02D152EAD6
:102A2000033C02D14FF0000070474FF001007047A7
:102A30004FEA410212F5001215D211D56FF47873E6
:102A4000B3EB625212D94FEAC12343F0004343EA89
:102A5000505311F0004F23FA02F018BF4042704764
:102A60004FF00000704750EA013005D111F00040EE
:102A700008BF6FF0004070474FF00000704700BF84
:102A800053B94AB9002908BF00281CBF4FF0FF31D5
:102A90004FF0FF3000F074B9ADF1080C6DE904CED1
:102AA00000F006F8DDF804E0DDE9022304B0704729
:102AB0002DE9F047089E04468846002B40F08580AB
:102AC0008A42154648D9B2FA82F24AB1C2F12007C9
:102AD00001FA02F320FA07F7954047EA0308944009
:102AE0004FEA154E230CB8FBFEF71FFA85FC0EFBD0
:102AF000178843EA084307FB0CF1994209D9EB1800
:102B000007F1FF3080F0E380994240F2E080023F1D
:102B10002B445B1AA4B2B3FBFEF00EFB103344EA65
:102B2000034400FB0CFCA44509D92C1900F1FF3328
:102B300080F0CB80A44540F2C88002382C4440EAA3
:102B40000740A4EB0C0400271EB1D4400023C6E9C3
:102B500000433946BDE8F087002A53D0B2FA82F22A
:102B6000002A40F0B680491B4FEA154E1FFA85F83F
:102B70000127B1FBFEFC230C0EFB1C1143EA0143B1
:102B800008FB0CF1994207D9EB180CF1FF3002D287
:102B9000994200F2EC808446591AA3B2B1FBFEF0D0
:102BA0000EFB101443EA044408FB00F8A04507D9C3
:102BB0002C1900F1FF3302D2A04500F2DC80184648
:102BC000A4EB080440EA0C40BEE78B4208D9002E73
:102BD00078D00027C6E9000138463946BDE8F087BD
:102BE000B3FA83F77FB98B4202D3824200F2BD80F1
:102BF000841A61EB030301209846002EA9D0C6E990
:102C00000048A6E7FFDEC7F12005BB4022FA05FC1D
:102C10004CEA030C01FA07F420FA05F821FA05F34F
:102C20004FEA1C4E48EA0404B3FBFEF9210C0EFBEC
:102C300019331FFA8CF841EA034309FB08FA9A4555
:102C400002FA07F200FA07F10BD91CEB030309F1B2
:102C5000FF3080F088809A4540F28580A9F1020912
:102C60006344A3EB0A03A4B2B3FBFEF00EFB1033E4
:102C700044EA034400FB08F8A04508D91CEB04040F
:102C800000F1FF336BD2A04569D90238644440EAB1
:102C90000940A4EB0804A0FB02894C45C6464B46FC
:102CA00054D351D0002E69D0B1EB0E0264EB030473
:102CB00004FA05F522FA07F3FC401D43C6E9005467
:102CC000002746E73746304643E7184637E70746CA
:102CD0001FE7C2F1200320FA03F7954001FA02F042
:102CE00021FA03F34FEA154E3843010CB3FBFEF70C
:102CF0001FFA85F80EFB173341EA034107FB08F37F
:102D00008B4204FA02F407D9691807F1FF3C28D274
:102D10008B4226D9023F2944CB1A81B2B3FBFEF085
:102D20000EFB103341EA034100FB08F38B4207D945
:102D3000691800F1FF3C10D28B420ED902382944A9
:102D4000C91A40EA074714E74145ABD2B8EB020E77
:102D500069EB0C0201381346A4E76046F0E7184619
:102D600095E76746D8E781467BE7384645E7ACF10B
:102D7000020C2B4410E702382C4421E73746E8E6E2
:102D8000704700BF70B500294AD005460C4610B107
:102D9000836B002B47D0636EB4F90C20D80732D573
:102DA000002A3DD02146284600F054F8E36A064642
:102DB00033B1E169284698470028B8BF4FF0FF3685
:102DC000A3891A063CD4216B41B104F14003994216
:102DD00002D0284600F0C6F900232363616C21B1BC
:102DE000284600F0BFF90023636400F05FF9636ECA
:102DF0000022DB07A28128D5A06D00F0F9FA00F0CF
:102E00005BF9304670BD9105CCD4A06D00F0F2FAAC
:102E1000B4F90C30002BC5D1666E16F001060AD04D
:102E20000026304670BD00F017F9636EB4F90C202F
:102E3000D807B5D4E7E7A06D00F0DEFA304670BDE4
:102E40002169284600F08EF9BDE7A06D00F0D4FAA4
:102E5000D2E700BFB1F90C309AB22DE9F0410C462F
:102E60001107804648D4626843F40063002AA381B6
:102E70005DDDA56A002D57D000229BB2D8F8006016
:102E8000E169C8F8002013F4805254D10123404670
:102E9000A847431C024665D0A389A56AE1695F077C
:102EA00005D56068236B121A0BB1E36BD21A0023AD
:102EB0004046A847451C48D1D8F80020B4F90C304A
:102EC000002A5CD01D2A01D0162A64D12269002173
:102ED000C4E9002123F40063A381216BC8F80060DA
:102EE00011B304F14003994202D0404600F03AF990
:102EF00000202063BDE8F0812669AEB12568266018
:102F000091070CBF63690023AD1BA3600AE02B4649
:102F10003246676AE1694046B8470028A5EB0005DC
:102F200006440ADD002DF2DC0020BDE8F081E26BF2
:102F3000002A9EDCF8E7226DB1E7A38943F0400345
:102F4000A3814FF0FF30BDE8F081B4F90C30226965
:102F5000226023F4006300226260DA04A381BCD5FE
:102F60002065BAE7D8F80030002B95D01D2B0FD084
:102F7000162B0DD0A38943F04003A381D5E723F49A
:102F800000632169A381DB04C4E90012A5D5E7E74A
:102F9000C8F80060C8E743F04003A381C5E700BF5D
:102FA00038B50D46044608B1836BA3B1B5F90C00E2
:102FB000B8B16B6EDB0701D4810515D520462946D3
:102FC000FFF748FF6B6EDA07044602D4AB899B0516
:102FD0000ED5204638BD00F03FF8B5F90C000028AA
:102FE000E7D10446204638BDA86D00F003FAE5E7B6
:102FF000A86D00F001FA204638BD00BF10B50023CF
:1030000004468181C281C0E9003383604366C0E920
:1030100004338361194608225C3000F041FD074803
:103020000749084A084BE362C4E90740C4E90912AA
:1030300004F15800BDE8104000F0D8B92D3C001A4A
:10304000513C001A913C001AB13C001A014900F0B1
:103050007FB900BF852D001A10B50446114800F055
:10306000C9F9A26BC2B904F53B730F48C4F8E0225A
:103070000321C4E9B913E06304216068FFF7BEFFD0
:1030800001220921A068FFF7B9FF02221221E0689E
:10309000FFF7B4FF0123A3630248BDE8104000F02E
:1030A000ABB900BF9C2B00104D30001A014800F056
:1030B000A1B900BFB02B0010014800F09DB900BFBE
:1030C000B02B0010F8B5244F0C46064600F038FD32
:1030D000BB685D68C4F57E610F3125F003052944A6
:1030E00021F47F6121F00F01A1F58054B4F5805FD8
:1030F00007DB00213046FDF7DBFABB682B44984222
:1031000004D0304600F022FD0020F8BD6142304678
:10311000FDF7CEFA01300DD0104BBA6819682D1B9F
:1031200045F001053046091B5560196000F00EFDA1
:103130000120F8BD00213046FDF7BAFABA68831ABB
:103140000F2BDEDD064C0549246843F00103001B0C
:1031500053600860D5E700BF68040010402B0010E2
:103160007008001000295DD0F8B50F46064600F043
:10317000E7FC57F804CC734C2CF00103A7F10800CE
:10318000C218A1685568914225F003057FD01CF054
:10319000010F556002EB050133D157F808EC49687F
:1031A000A0EB0E0004F1080C87686745734401F03A
:1031B000010160D0D0F80CE0C7F80CE0CEF8087040
:1031C000002900F0898043F0010141601360B3F5EC
:1031D000007F30D2DB08591C65689A1001239340A8
:1031E0002B4304EBC10254F831506360083AC0E944
:1031F000025244F83100E8603046BDE8F84000F083
:10320000A5BC4968C9070ED42B4404F1080C916889
:10321000614543F0010567D0D268CA60916045609E
:10322000C350D4E7704743F00101B3F5007F47F87E
:10323000041C1360CED35A0A042A42D89A0902F118
:103240003907FF0002F13801E519E259083D9542BE
:1032500051D0516821F00301994202D992689542F8
:10326000F7D1D568C0E90225A860D0603046BDE836
:10327000F84000F06BBC00295ED1D2E902122B4469
:1032800043F00104CA6091604460C350B4E71CF08D
:10329000010F2B4407D157F8082C801A1344D0E9AA
:1032A0000212CA609160284A126843F001019A42F2
:1032B0004160A060A0D8254B30461968FFF702FF97
:1032C0009AE7142A0AD9542A1DD81A0B02F16F075B
:1032D000FF0002F16E01B7E72B4498E702F15C07AB
:1032E000FF0002F15B01AFE7C4E90400C0E902CCD2
:1032F0004560C35080E763688910012707FA01F130
:1033000019436160AEE7B2F5AA7F06D8DA0B02F185
:103310007807FF0002F1770196E740F254518A42A4
:1033200006D89A0C02F17D07FF0002F17C018BE7C1
:103330004FF47E777E2187E743F0010141601360FF
:103340005AE700BF6804001074080010702B0010CA
:103350002DE9F84310F538771FD0884606464FF020
:103360000009D7E90154013D11D4A389012B05F1CE
:10337000FF3508D9B4F90E3001332146304602D06A
:10338000C04749EA00096B1C04F16804EDD13F68AD
:10339000002FE6D14846BDE8F883B9464846BDE867
:1033A000F88300BF70B50D4E0D4D761BB61006D0DC
:1033B0000024013455F8043B9847A642F9D1094E40
:1033C000094D761BFDF71AF9B61006D0002401341A
:1033D00055F8043B9847A642F9D170BD3C82001ACB
:1033E0003C82001A4082001A3C82001A704700BFDB
:1033F000704700BF704700BF704700BF2DE9F04F16
:1034000001F10B05162D83B0064623D8102900F2D2
:10341000B98000F095FB102518230220BA4F3B44D9
:10342000A3F108025C68944200F0B980636823F05D
:1034300003032344D4E902515A68E96042F00102CF
:1034400030468D605A6000F081FB0834204603B09E
:10345000BDE8F08F35F0070500F19480A94200F235
:10346000918000F06DFBB5F5FC7FC0F0A2816B0A86
:1034700000F08F80042B00F27881AB0903F1390052
:1034800003F1380CC300A04F3B44A3F108015C6872
:10349000A14206D10CE0002A80F22781E468A14213
:1034A00006D0636823F003035A1B0F2AF3DD60463E
:1034B0003C69DFF868C264457CD0636823F003038D
:1034C0005A1B0F2A00F38381002AC7E904CC80F23B
:1034D0007481B3F5007F80F02581DB08591C7A6880
:1034E00057F83180C4F808804FF0010E9B100EFA97
:1034F00003F307EBC10E1343AEF10802E2607B60F9
:1035000047F83140C8F80C408210012494409C4296
:1035100056D81C4206D120F0030064001C4200F182
:103520000400FAD007EBC009CE468046DEF80C3026
:103530009E4507D125E1002A80F22C81DB689E455B
:1035400000F01F81596821F003014A1B0F2AF2DDA8
:10355000D3E9028E5C1945F001055D6042F001057A
:10356000C8F80CE03046CEF80880C7E90444C4E946
:1035700002CC65605A50009300F0E8FA009B03F11A
:10358000080402E00C2333600024204603B0BDE8A9
:10359000F08F4FF4007340204FF03F0C73E7DC686E
:1035A000A34208BF02307FF441AF3C69DFF86CC131
:1035B000644582D17B688210012494409C42A8D942
:1035C000BC68636823F00308A84503D3A8EB050390
:1035D0000F2B7ADCDFF848914C4BD9F800201B68A0
:1035E00001322B4404EB080A00F03C8103F58053C0
:1035F0000F3323F47F6B2BF00F0B59463046FDF74A
:1036000057F8411C024600F0FC80824500F2F7802A
:103610003F4B186858441860014600F05781D9F8AC
:103620000000019301301BBFA2EB0A0A5144C9F804
:103630000020196012F0070A00F02081CAF1080189
:103640000A44CAF5805193440831A1EB0B01C1F340
:103650000B09494630460092FDF72AF8421CDDE985
:10366000002300F05881801A00EB090B1868BA603B
:103670004BF001014844BC425160186000F03281B7
:10368000B8F10F0F40F230816168A8F10C0C2CF0FA
:10369000070C01F0010104EB0C0E41EA0C014FF0A4
:1036A0000508BCF10F0F6160CEE9018800F23B8193
:1036B00051681446174B1A68824238BF1860164B7F
:1036C0001A68824238BF18609DE0621943F0010316
:1036D00045F0010565603046BA60536000F036FA87
:1036E0000834204603B0BDE8F08F2344E1685A68EF
:1036F000A56842F00102E96030468D605A6000F032
:1037000025FA083441E700BF68040010702B001050
:10371000402B0010682B00106C2B00107004001060
:10372000700800105A0A042A63D9142A00F2B780DC
:1037300002F15C01C9005B3207EB010E7958AEF172
:10374000080E8E4500F091804A6822F003029A42EA
:1037500002D989688E45F7D1D1F80CE07B68C4E9BD
:10376000021ECEF80840CC60CEE6142B59D9542B5B
:1037700000F29D802B0B03F16F0003F16E0CC30070
:1037800081E608F1010818F0030F0EF1080E7FF42E
:10379000CDAE51E019441C464A68DB6854F8085F16
:1037A00042F001024A603046EB609D6000F0CEF9C5
:1037B000EBE6E80805F1080330E6234430465A6892
:1037C00042F001025A60083400F0C0F9DDE66119E8
:1037D00045F0010E42F00105C4F804E03046C7E9A7
:1037E0000411C1E902CC4D60E25000F0AFF9083499
:1037F000CBE69A0902F13901C90038329CE7BC4294
:103800005FD0BC68616821F0030BAB45ABEB0503EF
:1038100002D30F2B3FF759AF304600F097F9002441
:10382000B3E603F15C0003F15B0CC3002BE659F82F
:1038300008394B4540F0968010F0030F00F1FF303F
:10384000F5D17B6823EA04037B6064009C423FF669
:10385000B7AE1CB9B4E6640008F104081C42FAD003
:1038600040465FE603F1100BC7E67B6892104FF00D
:10387000010808FA02F213437B6070E702EB0B00C9
:103880004042C0F30B09494630460092FCF710FF56
:10389000431CDDE900237FF4E6AED146E6E6542A78
:1038A00025D81A0B02F16F01C9006E3244E7B3F557
:1038B000AA7F25D8EB0B03F1780003F1770CC30046
:1038C000E1E5294B196859441960A8E6CAF30B0CC5
:1038D000BCF1000F7FF4A3AEC344BC684BF0010100
:1038E0006160E7E61446E5E60123536094E7B2F52C
:1038F000AA7F23D8DA0B02F17801C90077321BE7DF
:1039000040F25452934223D8AB0C03F17D0003F1F3
:103910007C0CC300B7E5AAF1080AD344ABEB020B59
:103920004FF00009A2E604F1080130460093FFF7CA
:1039300019FCBC68009B61681868BBE640F25451F2
:103940008A420BD89A0C02F17D01C9007C32F3E661
:103950004FF47E737F204FF07E0C94E54FF47E7120
:103960007E22E9E67B6870E7402B0010844641EA3E
:10397000000313F003036DD1403A41D351F8043BE7
:1039800040F8043B51F8043B40F8043B51F8043B39
:1039900040F8043B51F8043B40F8043B51F8043B29
:1039A00040F8043B51F8043B40F8043B51F8043B19
:1039B00040F8043B51F8043B40F8043B51F8043B09
:1039C00040F8043B51F8043B40F8043B51F8043BF9
:1039D00040F8043B51F8043B40F8043B51F8043BE9
:1039E00040F8043B51F8043B40F8043B51F8043BD9
:1039F00040F8043B51F8043B40F8043B403ABDD248
:103A0000303211D351F8043B40F8043B51F8043BE9
:103A100040F8043B51F8043B40F8043B51F8043BA8
:103A200040F8043B103AEDD20C3205D351F8043B78
:103A300040F8043B043AF9D2043208D0D2071CBF44
:103A400011F8013B00F8013B01D30B88038060466D
:103A5000704700BF082A13D38B078DD010F00303E3
:103A60008AD0C3F10403D21ADB071CBF11F8013B53
:103A700000F8013B80D331F8023B20F8023B7BE7A2
:103A8000043AD9D3013A11F8013B00F8013BF9D2CD
:103A90000B7803704B7843708B7883706046704767
:103AA000F0B4860746D0541E002A3CD0CAB2034662
:103AB00002E014F1FF3436D303F8012B9D07F8D14F
:103AC000032C29D9CDB245EA05250F2C45EA054539
:103AD00033D9A4F11006360903F1200707EB0617C6
:103AE00003F1100242E9045542E902551032BA428C
:103AF000F8D1721C14F00C0F03EB021204F00F0645
:103B000013D0331F23F003030433134442F8045B40
:103B10009342FBD106F003042CB1C9B21C4403F854
:103B2000011B9C42FBD1F0BC704734461346002C6D
:103B3000F3D1F8E714460346C2E71A462646E0E703
:103B40000148FFF757BC00BFA02B00100148FFF74A
:103B500053BC00BFA02B00100FB400B5074983B0C1
:103B600004AB086853F8042B8168019300F018F93E
:103B700003B05DF804EB04B0704700BF3C000010D8
:103B800070B5054688B008460C4600F099F8224A00
:103B9000AB6B04940126441C04A9069202220394F0
:103BA0000590AC680796CDE901121BB3616EB4F9BC
:103BB0000C30CE079AB201D4900525D5910406D4D5
:103BC000626E43F4005322F40052A38162662846D9
:103BD00001AA214602F0F6FE636E002814BF4FF0E2
:103BE000FF350A25DA0702D4A3899B0506D52846A6
:103BF00008B070BD2846FFF72FFAD7E7A06DFFF792
:103C0000FBFB284608B070BDA06DFFF7F3FBB4F9CD
:103C10000C309AB2D2E700BFB880001A024B0146BE
:103C20001868FFF7ADBF00BF3C00001010B50C4690
:103C3000B1F90E10FCF7FEFC002803DB236D0344F2
:103C4000236510BDA38923F48053A38110BD00BF59
:103C50002DE9F0411646B1F90C201F46D3050C465C
:103C60000546B1F90E1009D422F48052A2813B46D8
:103C700032462846BDE8F041FCF704BD002202238D
:103C8000FCF7D2FCB4F90C20B4F90E10ECE700BF3D
:103C900010B50C46B1F90E10FCF7C6FCA389421C06
:103CA0000EBF23F4805343F480532065A38110BDDD
:103CB000B1F90E10FCF7A4BCFFFFFFFFFFFFFFFFF1
:103CC00090F800F06DE9024520F007016FF0000C5C
:103CD00010F0070491F820F040F049804FF0000404
:103CE0006FF00700D1E9002391F840F000F10800DF
:103CF00082FA4CF2A4FA8CF283FA4CF3A2FA8CF317
:103D00004BBBD1E9022382FA4CF200F10800A4FA7D
:103D10008CF283FA4CF3A2FA8CF3E3B9D1E90423D1
:103D200082FA4CF200F10800A4FA8CF283FA4CF308
:103D3000A2FA8CF37BB9D1E9062301F1200182FAC2
:103D40004CF200F10800A4FA8CF283FA4CF3A2FAC8
:103D50008CF3002BC6D0002A04BF04301A4612BAD6
:103D6000B2FA82F2FDE8024500EBD2007047D1E9D9
:103D7000002304F00305C4F100004FEAC50514F068
:103D8000040F91F840F00CFA05F562EA05021CBF39
:103D900063EA050362464FF00004A9E7FFFFFFFF57
:103DA0002DE9F04FD5B01C468946174605460590CB
:103DB00002F08CFF036815931846FFF781FF089403
:103DC00013901DB1AB6B002B00F01184D9F8641077
:103DD000B9F90C20CD0793B202D4980540F154876D
:103DE00099040AD4D9F8641042F4005321F4005124
:103DF000A9F80C30C9F864109BB21A0740F1BF80D3
:103E0000D9F81020002A00F0BA8003F01A020A2A1A
:103E100000F0C38000239FED9C7B1293CDE92933F2
:103E200014931693CDE91833179304932BAB28936F
:103E30009B463B78CDF81C908DED107B002B00F05D
:103E40006782252B01F0AB803D4603E0252B00F077
:103E5000BB8025466B786C1C002BF7D1E61B00F06D
:103E60005782DDE9293201333244072BCBF8007049
:103E7000CBF80460CDE9293200F3AA800BF1080BDE
:103E8000049A6B7832440492002B00F041820023A4
:103E900094F8018006938DF88330029304F1010AAF
:103EA0004FF0FF392B2620210AF1010AA8F1200347
:103EB0005A2B00F2A183DFE813F082029F039F03D5
:103EC0007B029F039F039F0301039F039F03F6024F
:103ED000DF009F03C4002B039F032403960096007A
:103EE00096009600960096009600960096009F0316
:103EF0009F039F039F039F039F039F0345039F030C
:103F0000A80162014503450345039F039F039F03E7
:103F10009F035B019F039F034E019F039F039F032A
:103F200023019F0315019F039F03CB009F039F0362
:103F30009F039F039F039F039F039F0345039F03CB
:103F4000A801EF004503450345037002EF005B0045
:103F50009F03EB029F03D102BD028C025B009F0313
:103F600023015F0087039F039F03A5009F035F005A
:103F7000029B43F0200302939AF8008094E749469D
:103F8000059801F0F9FC002841F08183B9F80C3064
:103F900003F01A020A2A7FF43DAFB9F90E20002A75
:103FA000FFF638AFD9F86420D60702D49D0541F159
:103FB000908123463A464946059801F09BFC0490BF
:103FC000049855B0BDE8F08FE61B3FF460AF48E7BA
:103FD00028AA0799059803F01FFD002841F02784BF
:103FE0000DF1AC0B4CE7A8F1300300221AF8018B5D
:103FF00002EB820203EB4202A8F13003092BF5D950
:10400000069253E7224B1493029B9F0625D5089CEA
:10401000073424F00703F3E802450893029AD10716
:104020000AD554EA050307D0302342F002028DF886
:10403000858002928DF88430029B23F480660223EF
:10404000D9E19AF80080029B43F0040302932BE726
:10405000104B1493029B9F06D9D4089B53F8044B32
:104060000893029BDE0600F14F86029B5D0640F13D
:104070004786A4B20025D1E78DF883609AF80080C6
:1040800012E700BFAFF30080000000000000000056
:10409000E080001ACC80001A029EB00640F10B8727
:1040A000089C073424F007031946F1E8022308911D
:1040B00014461D46002A73F1000371DBB9F1FF3F7E
:1040C00000F0C58226F08003029354EA050340F015
:1040D000BD82B9F1000F41F00E814FF000094E464C
:1040E00054AFBFE2029B9D0643F0100600F18F82A1
:1040F000089B1A1D089B08921C68002501237AE181
:10410000089C54F8047B00258DF88350002F00F0A4
:104110003787B9F1FF3F00F0BC874A462946384649
:1041200002F056FE0990002801F04A82099BA94638
:10413000DE1BCDE90E9926EAE6739DF883200894EC
:104140000393CDF82490CDF83090002A6FD0039BD4
:10415000013303936BE0029B9C0643F0100600F1D1
:104160005F82089B1A1D089B08921C6800255EE26E
:10417000029B9AF8008043F00803029394E6029BA6
:104180009C0643F010068BD4089B1A1D089B0892CE
:104190001C68E51722462B46002A73F100038DDACE
:1041A00064424FF02D0365EB4505B9F1FF3F8DF8F3
:1041B00083304FF0010340F02581012B00F047824E
:1041C000022B00F0798454A900E03946E20842EA63
:1041D0004572E80804F0070305461446303354EAF4
:1041E000050201F8013C01F1FF37EED1F20740F181
:1041F0008882302B00F085823023023907F8013C99
:1042000054AB02960F465E1A2CE2089C002354F829
:10421000042B8DF8EC2001261A4603960894CDE96C
:104220000E228DF88330099291460C923BAF029B8F
:1042300013F002030A9302D0039B02330393029B01
:104240002A9C13F084030B9304D1069B03995D1AF7
:10425000002D66DC72B1299A013201340DF1830020
:104260000121072ACDE92924CBE9000100F3B1831C
:104270000BF1080B0A9B6BB1299B0133023421A976
:104280000222072BCDE92934CBE9001200F3AD83DC
:104290000BF1080B0B9B802B00F09582A9EB060518
:1042A000002D00F3D382029BDB0500F12E82299BB7
:1042B000CBF8007001333444072B2A94CBF8046008
:1042C000299300F325830BF1080B029B5D0705D5AD
:1042D000069B039A9D1A002D00F3AE83049B069A59
:1042E00003998A42ACBF9B185B180493002C40F0E2
:1042F000E78200232993099B1BB109990598FEF7D2
:1043000031FF0DF1AC0B57463B78002B7FF499AD94
:104310002A9BDDF81C90002B40F0F58600232993A2
:1043200075E3102D299A29DD594620461E96102343
:10433000059C079EBB4604E0103D102D01F10801CD
:1043400018DD0132BC4F1030072ACDE92920C1E920
:104350000073F1DD28AA3146204603F05DFB0028FA
:1043600040F04F83103D102DDDE929202BA94FF09F
:104370001003E6DC1E9E5F4604468B460132AE4BC0
:104380002C44072ACDE92924CBE9003500F32A86FD
:104390000BF1080B9DF883205CE79AF80080029BE4
:1043A000B8F1680F00F0E38543F0400302937BE52A
:1043B000029B9AF8008043F00103029374E59DF894
:1043C00083309AF80080002B7FF46EAD8DF8831057
:1043D0006AE5089C47F6300254F8043BADF88420A7
:1043E000029A08941C46954B149342F0020600254D
:1043F00002234FF078080022B9F1FF3F8DF88320A7
:104400003FF4DBAE26F08002029254EA050240F04F
:10441000DD82B9F1000F40F04883002B7FF45DAEE0
:1044200016F0010600F06A8430238DF84F310DF24A
:104430004F1717E1029EB00600F1F280029B089A26
:10444000D90652F8044B01F14382029E33465B06C3
:1044500040F135860892A4B20025E8E00299089A56
:10446000890602F1040300F15284029AD70600F192
:10447000E185029A560600F16486029A950540F19C
:10448000D985089A08931268049B137057463BE736
:104490009AF80080029BB8F16C0F00F05F8543F042
:1044A0001003029300E5089B9AF8008053F8042B50
:1044B0000692002AC0F213850893F5E4059D28466C
:1044C00002F004FC436817931846FFF7F9FB1990B4
:1044D0000446284602F0FAFB836818932021002C3A
:1044E0003FF44AAD189B9AF80080002B3FF4DCACF7
:1044F0001B78002B3FF4D8AC029B43F480630293FB
:10450000D2E4029B9AF8008043F080030293CBE44C
:10451000524612F8018BB8F12A0F01F0BE81A8F1C2
:104520003003092B92464FF000093FF6BFAC1AF852
:10453000018B09EB890903EB4909A8F13003092B29
:10454000F5D9B3E4089C073424F00703B3EC027BED
:1045500055EC174B089325F000431B938DED1A7A09
:10456000DDE91A014FF0FF32354B8DED107BFEF780
:1045700049FA002840F0DC834FF0FF32304BDDE990
:104580001A01FEF721FA002840F0D283002200230E
:1045900020462946FEF70EFA002840F080879DF855
:1045A0008320284F284B02980021032620F080000A
:1045B000039609910290B8F1470FC8BF1F4689467C
:1045C0000C91CDE90E11C0E5029EB4061FD4029BEA
:1045D000089AD80652F8044B01F17481029E7106C4
:1045E00040F177850892A4B20025012303E70598DE
:1045F000FEF732FDFFF7EABBB8F1000F3FF488AEDB
:10460000002301261A4603968DF8EC8007E6089CE5
:10461000073424F00703F3E8024508930123EAE690
:10462000089C073424F00703F3E80245089326F4B6
:1046300080660023DFE600BF0081001AE080001AD8
:10464000FFFFEF7FBC80001AC080001A029E002D81
:1046500008BF0A2C13D2303402968DF84F41012640
:104660000DF24F1700234E4509930C93CDE90E33FD
:104670003346B8BF4B469DF88320039365E506F4A7
:1046800080630022CDE902A8CDF824B054AFCB4618
:104690009246B146DDF860801E4607E0FEF7F0F96D
:1046A000002D08BF0A2C20D304460D460A22002301
:1046B00020462946FEF7E4F902F1300C07F801CC58
:1046C000204629460A2200230AF1010A013F002E52
:1046D000E4D098F800C0E245E0D1BAF1FF0FDDD098
:1046E0009D4208BF944280F01E87CDF848A04E46F8
:1046F000CDF86080D946DDF808A0DDF80C80DDF843
:1047000024B0029654ABDE1BACE7B8F1650F40F362
:104710000A8100220023DDE91001FEF741F900289B
:1047200000F0DE81299BC24ACBF80020013301341E
:104730000122072BCDE92934CBF8042000F3638450
:104740000BF1080B229B129A2A9C934280F2A582BD
:10475000299B159ACBF80020139ACBF8042001333B
:104760001444072BCDE9293400F3EC830BF1080B3B
:10477000129B5D1E002D7FF7A8AD102D299AAD4B21
:1047800040F34E841026059FDDF81C80994605E015
:104790000BF1080B103D102D40F341840132103411
:1047A000072ACDE92924CBE90096F1DD28AA414664
:1047B000384603F031F9002840F02384DDE929244C
:1047C0000DF1AC0BE6E7069B039A9D1A002D7FF7CF
:1047D00065AD102D299A974B28DD0A96594620463B
:1047E000BB46059C079E1F4604E0103D102D01F1BD
:1047F000080116DD013210301023072ACDE92920E7
:104800000F604B60F1DD28AA3146204603F004F921
:10481000002840F0F680103D102DDDE929202BA95D
:10482000E8DC0A9E3B4604465F468B4601322C4438
:10483000072ACDE92924CBE9003500F35583A9EBFC
:104840000605002D0BF1080B7FF72DAD102D299AD1
:10485000784B29DD0A9659462046BB464FF0100991
:10486000059C079E1F4604E0103D102D01F1080134
:1048700015DD01321030072ACDE92920C1E9007980
:10488000F2DD28AA3146204603F0C6F8002840F0A1
:10489000B880103D102DDDE929202BA9E9DC0A9E06
:1048A0003B4604465F468B4601322C44072ACDE93D
:1048B0002924CBE9003500F3DA810BF1080BF2E48F
:1048C00028AA0799059803F0A7F800283FF411AD2E
:1048D000DDF81C9096E0299A1599CBF800101399F1
:1048E000CBF8041001320C44072A2A94299200F3D1
:1048F000E1840BF1080B002BC0F2A286129B01325F
:104900001C44072ACDE92924CBE900737FF7DBACEF
:1049100028AA0799059803F07FF80028D8D12A9C87
:104920000DF1AC0BD1E4129A299B012A04F1010488
:1049300003F101050BF1080640F358810123072D0F
:10494000CBF80070CDE92954CBF8043000F32A836A
:10495000139B159A691C1C4407290B91CDE9291456
:10496000C6E9002300F32A8308360B9A129D02F150
:10497000010900230022DDE91001CDF8289006F19D
:10498000080B05F1FF38FEF70BF8002840F04181D5
:104990000A9BC6F8048001374444072B37602A94E9
:1049A000299300F3BF820B9A06F1100302325E4690
:1049B0000A929B46169A726014440A9A2A9424AB6F
:1049C000072A299233607FF780ACA1E7029EFFF7A8
:1049D000F4BB28AA0799059803F01EF800287FF475
:1049E00077AF2A9C0DF1AC0B44E428AA07990598EF
:1049F00003F012F800287FF46BAF2A9C0DF1AC0B8A
:104A000048E4B146099911B10598FEF7ABFBD9F816
:104A10006420B9F80C30D40702D4980540F1DB8249
:104A2000590600F14086049855B0BDE8F08F00BFEC
:104A3000FC80001A1081001A102D299B21DD102600
:104A4000059FDDF81C8004E0103D102D0BF1080BD4
:104A500017DD0133B34A1034072BCDE92934CBE9F4
:104A60000026F1DD28AA4146384602F0D5FF00288D
:104A700040F0C782103D102DDDE929340DF1AC0B5B
:104A8000E7DC0133A74A2C44072BCDE92934CBE9D5
:104A900000257FF723AC28AA0799059802F0BCFFF0
:104AA00000287FF415AF2A9C18E4012B00F0238422
:104AB000022B029E7FF487AB149854AF230904F0B5
:104AC0000F0143EA05732A091C461546435C07F8A3
:104AD000013D54EA0503F1D154AB0296DE1BC1E55A
:104AE000229B002B40F3DF800E9B129A9342A8BFBB
:104AF0001346002B1D460DDD299BCBF800700133BA
:104B00002C44072B2A94CBF80450299300F3FE84FD
:104B10000BF1080B0E9B002DA8BF5B1B002B1D4645
:104B200000F390820E9B3B449946029B580500F18E
:104B30001384229B129A934203DB029AD10740F11D
:104B4000F782299A1599CBF800101399CBF8041025
:104B500001320C44072A2A94299200F323850BF191
:104B6000080B129ABD18A5EB0905D31A9D42A8BFE0
:104B70001D46002D0DDD299ACBF8009001322C4402
:104B8000072A2A94CBF80450299200F346850BF1AA
:104B9000080B002DACBF5D1B1D46002D7FF795ABAC
:104BA000102D299A604B40F33B821026059FDDF8BB
:104BB0001C80994605E00BF1080B103D102D40F3C9
:104BC0002E8201321034072ACDE92924CBE9009640
:104BD000F1DD28AA4146384602F01EFF002840F0C9
:104BE0001082DDE929240DF1AC0BE6E7029AD20729
:104BF0003FF5A4AE0122072DCBF80070CDE9295472
:104C0000CBF8042000F38E8102330A930BF1100BD2
:104C1000D0E6B8F1000F7FF7CDAEB8F1100F424BE0
:104C200040F335861A464D4623461027DDF81CB062
:104C3000DDF81490144607E00836A8F11008B8F122
:104C4000100F40F35E8101351033072DCDE9295354
:104C5000C6E90047F0DD28AA5946484602F0DCFEC6
:104C6000002840F01D82DDE929532BAEE5E728AA94
:104C70000799059802F0D0FE00287FF429AE2A9CFF
:104C80000DF1AC0BFFF70FBBD9F85800FEF7B2FBE4
:104C9000B9F90C2093B2FFF7A3B8029BDD073FF5EB
:104CA00057ADFFF712BB299A2049CBF8001001320B
:104CB00001340121072ACDE92924CBF8041000F39F
:104CC00009840BF1080B002B7FF405AE029B129AAE
:104CD00003F0010313433FF4F8AA299A159BCBF87C
:104CE0000030139BCBF8043001321C44072A2A946D
:104CF000299200F3DF820BF1080BFFE554AFB1E41A
:104D0000029B980500F12D820025FFF787B90499D1
:104D100012680893CD1708462946C2E90001574694
:104D2000FFF7F2BA0081001A1081001AFC80001A05
:104D3000DDE9100102460B46FDF764FE002840F055
:104D40003A85B8F1610F00F0D084B8F1410F00F05E
:104D50000C8228F02003B9F1FF3F039300F0008597
:104D6000472B04D1B9F1000F08BF4FF00109DDE96D
:104D700010450299002D41F48072C0F29583002302
:104D8000CDE90931CDE91C451E930292039B462BC8
:104D900000F0DF83452B00F0D28426AA23ABCDE9B7
:104DA0000032022122AB4A469DED1C0B059800F013
:104DB000DFFE039B472B074640F08D850A9BDB07F0
:104DC00000F13B84269EF31B1293229B0E93039BC0
:104DD000472B00F09382039B462B00F0FD83039941
:104DE0000E9B412903F1FF325FFA88F303BF0F33B3
:104DF000DBB201210021002A8DF89030B8BF0E9B54
:104E00002292B6BFC3F101022B232D23092A8DF86C
:104E1000913040F3C1840DF19F042046BE4D01E066
:104E200008461A4685FB0231D317C3EBA10303EBF7
:104E30008301A2EB41013031632A00F8011C00F12B
:104E4000FF31EDDC3033821EDBB2944201F8013CCD
:104E500040F244850DF1920201E011F8013B02F8A5
:104E6000013BA142F9D10DF1A1030DF192021B1AF0
:104E7000134424AA9B1A1693129B169A012B03EB38
:104E8000020640F3EE84139B1E440A9B002223F487
:104E9000806343F48073CDE90E22029326EAE67321
:104EA0000C9203931E9B002B40F04F8299469DF875
:104EB0008320FFF74AB9089B1A1D029BD90600F10F
:104EC0000485029E33465B0640F1EC80089B089205
:104ED000B3F90040E51722462B46FFF7EBB85242E4
:104EE00006920893FFF7AFB828AA0799059802F031
:104EF00093FD00287FF4ECAC2A9C0DF1AC0BFFF77E
:104F0000CDB922461C4613462A4601320A9206F1C2
:104F10000802C6E900380A9B29934444072B2A94C7
:104F200040F3008128AA0799059802F075FD002832
:104F30007FF4CEACDDE9293401330A930DF1B40BD3
:104F40002BAE37E528AA0799059802F065FD0028E1
:104F50007FF4BEAC2A9C0DF1AC0B09E443F02003B6
:104F60009AF8018002930AF1010AFEF79DBF43F40B
:104F700000739AF8018002930AF1010AFEF794BFC8
:104F80004E46062E28BF0626B9460C97CDE90E7769
:104F900009973A4603960894604FFFF7D6B83C4607
:104FA000FEF775BF28AA0799059802F035FD00287D
:104FB0007FF48EACDDE929542BAEC9E428AA079909
:104FC000059802F029FD00287FF482ACDDE9293440
:104FD0002BAE0B93C9E4D9F85800FEF70DFAB9F8D7
:104FE0000C301DE528AA0799059802F015FD002848
:104FF0007FF46EAC9DF883202A9C0DF1AC0BFFF77B
:1050000029B9C146FEE428AA0799059802F004FDD3
:1050100000287FF45DAC0DF1AC0BFFF793BB4B4662
:1050200001322C44072ACDE92924CBE900357FF74A
:105030004AA96DE4089A12680893049B13605746C6
:10504000FFF762B9102D299A354B50DD194610260D
:105050002346DDF81480DDF81C900C4604E00BF1CB
:10506000080B103D102D3FDD01321033072ACDE92A
:105070002923CBE90046F2DD28AA4946404602F042
:10508000CBFC00287FF4BEACDDE929230DF1AC0B8D
:10509000E7E73846FEF714FEA9460646FFF749B88B
:1050A000D946AFE4029E089B16F4007F51D093F9D5
:1050B00000400892E51722462B46FEF7FBBF029EF2
:1050C000B70547BF0892E4B2029E08920025FFF799
:1050D000AEBA029E089233469B054CBFE4B2029ED4
:1050E00000250123FFF787B921461C460B460132F4
:1050F0002C44072ACDE92924CBE9003500F3EF80C1
:105100000BF1080B0EE5059828AA494602F084FC2D
:1051100000283FF403A97AE467666666F480001A03
:105120001081001A01330A9302F1080B164641E47C
:10513000129ABD18A5EB0905D31A9D42A8BF1D46BA
:1051400027E5089A08931268049B13805746FFF7D7
:10515000DBB81C680892E517029E22462B46FEF734
:10516000A9BFE4B20025FEF759BF30238DF8843083
:1051700058238DF88530029BB9F1630F43F0020389
:105180000A9300F3B782002309933BAF029A119B65
:1051900042F481720292002B28F020020392C0F2A6
:1051A00088819DED107B8DED1C7B00231E93B8F153
:1051B000610F00F0D982B8F1410F7FF4E7AD22A86A
:1051C0009DED1C0B02F07CFB00224FF07F5351EC55
:1051D000100BFDF77DF900220023CDE90C01FDF74E
:1051E000DFFB08B101232293B64B0B93CDE90E8A66
:1051F00009F1FF35CDF84890CDF87CB0DDE90C8998
:10520000DDF82CB00C97BA4603E0FDF7C9FB20BBD4
:10521000B2460022AC4B40464946FDF759F9894653
:105220008046FDF705FC0746FDF7E8F802460B4609
:1052300040464946FCF794FF56461BF8074006F8DF
:10524000014BB5F1FF3F2C46804689464FF00002E6
:105250004FF0000305F1FF35D7D140464946002203
:105260009A4BDDF83880DDF87CB0CDF838A03D46AB
:10527000DDF848900C9FDDF83CA0CDE90C01FDF76E
:10528000B7FB002840F01482DDE90C0100228F4BAF
:10529000FDF786FB18B12B46DB0700F10982002CD5
:1052A000FFF691AD631C3344302206F8012B9E4279
:1052B000FBD188E528AA0799059802F0ADFB0028E4
:1052C0007FF406AB229BDDE929240DF1AC0BFFF73F
:1052D00012BBD9F85800FEF78FF8FEF76ABE28AA6D
:1052E0000799059802F098FB00287FF4F1AA2A9C00
:1052F0000DF1AC0B16E4029EFFF7ADB90E9BDE1C60
:1053000001DB994505DAA8F1020828F02003039390
:1053100065E5129B19460E9B994200F374810A9A27
:10532000D40740F15482139A9E180A9B580503D55E
:105330000E9B002B00F34D8226EAE67303934FF099
:10534000670800230C930F93ACE52D228DF8832082
:105350004FF00009FEF7FBBE129BCDF82CA0FB1806
:105360000A930F9B0E975A464F46594EDDF86080C0
:10537000DDF814A0DDF81CB0DDF864902146002BA8
:1053800032D00C9B002B6ED10F9B013B08F1FF38F4
:105390000F93299B1798106001334944072B2A91DA
:1053A000C2F80490299362DC08320A9898F8003019
:1053B000C51B9D42A8BF1D46002D0BDD299B176014
:1053C00001332944072B2A91556029935ADC98F818
:1053D00000300832002DACBF5D1B1D46002D15DCD2
:1053E0001F440F9B002BCCD10C9B002B3BD1B9460B
:1053F000129B0E9FDDF82CA0CDF86080FB1899451C
:1054000093460C4628BF9946FFF793BB102D299869
:105410001CDD102404E0103D102D02F1080215DD02
:10542000013010310728CDE92901C2E90064F2DD1D
:1054300028AA5946504602F0EFFA00287FF430AE11
:10544000103D102DDDE929012BAAE9DC01302944AA
:105450000728CDE92901C2E9006549DC98F8003048
:1054600008321F44BDE70C9B013B0C9391E728AA2F
:105470005946504602F0D0FA00287FF411AE2A991E
:105480002BAA92E728AA5946504602F0C5FA0028EE
:105490007FF406AE98F800302A992BAA9AE72D22BD
:1054A0008DF88320FFF77DB8029B0A9300230993B0
:1054B0000292DDE9101202F100431D932D231C918D
:1054C0001E9374E6CC80001A000030400000E03FDC
:1054D0001081001A28AA0799059802F09DFA002861
:1054E0007FF4F6A9229B2A9C0DF1AC0BFFF7EBBBD6
:1054F00028AA5946504602F08FFA00287FF4D0AD12
:1055000098F800302A992BAA1F446AE728AA07991D
:10551000059802F081FA00287FF4DAA92A9C0DF19F
:10552000AC0BFFF7F7BA199B1799FF1A1A463846C2
:1055300002F0FCF998F801300BB108F101080A22D9
:105540000023204629464FF0000AFDF799FAFFF79D
:10555000ABB826AA23ABCDE90032032122AB4A46E1
:105560009DED1C0B059800F003FB0378302B0746DC
:1055700000F06181229B4B44FC1800220023DDE9EE
:105580001C01FDF70DFA08B126461CE4269EA64232
:10559000BFF419AC3022731C26933270269EB4429D
:1055A000F9D810E428AA0799059802F035FA0028DE
:1055B0007FF48EA9229B2A9C0DF1AC0BFFF7D1BA88
:1055C0004E46CDF80C90089481460C90CDE90E0023
:1055D0009DF88320FEF7B9BD0A9B0E9A03F00103E4
:1055E000002A43EA090340F34281002B40F019816D
:1055F0000E9E4FF066080A9B5A0500F1EC8026EAE1
:10560000E67303939DE6DDE912329E180E9B002B94
:1056100040F31E814FF06708EDE728AA0799059827
:1056200002F0FAF900287FF453A9229B129A2A9CCF
:10563000D31A0DF1AC0BFFF7ACBA07EB09049CE7EA
:105640005D421033A74B63DA194610262346DDF876
:105650001480DDF81C900C4604E00BF1080B103DA3
:10566000102D52DD01321033072ACDE92923CBE971
:105670000046F2DD28AA4946404602F0CDF900284E
:105680007FF4C0A9DDE929230DF1AC0BE7E7D9F8D8
:105690006430DB0707D4B9F80C309F0503D4D9F880
:1056A0005800FDF7A9FE4FF0FF330493FFF7BBB995
:1056B0000E9B26930B9B16F8012CD97B8A4233460E
:1056C00009D1302003F8010C269B5A1E269213F8AC
:1056D000012C9142F6D0392A0BBF0B9A0132927AF3
:1056E000D2B203F8012CFFF76EBB30238DF8843063
:1056F00078233EE509F101010598FDF77FFE074695
:10570000002800F0D580099040E521461C460B4654
:1057100001322C44072ACDE92924CBE900357FF753
:10572000EAAA28AA0799059802F076F900287FF4DA
:10573000CFA8DDE929240DF1AC0BFFF7DFB809F1A3
:10574000010426A923ABCDE90031224622AB022178
:105750009DED1C0B059800F00BFA07463C440CE746
:105760004FF00609FFF703BB22A89DED1C0B02F0CA
:10577000A7F800224FF07F5351EC100BFCF7A8FE66
:1057800000220023CDE90C01FDF70AF908B101233D
:105790002293554B0B9329E500297BD130238DF8BB
:1057A00092300DF19303303203F8012B24AA9B1A97
:1057B0001693FFF761BB119B4C4F002BB6BF2D22F8
:1057C0009DF883208DF88320494BFEF7ECBE0E9E9A
:1057D000ABE54FF06708189800220C920F920378FF
:1057E0000E9AFF2B0CD093420ADA4178D21AA1B15B
:1057F0000F9B01330F930B46FF2B00F10100F2D1F9
:105800000E920F9B0C9A18901344199A02FB036690
:1058100026EAE6730393FFF745BB0C9901310C911F
:10582000DFE7139BD6184E444FF06608E3E6DDF839
:105830001C90FFF7ECB800220023DDE91C01FDF706
:10584000AFF800287FF496AEC9F10103229392E6E7
:10585000C3F101031E4426EAE67303934FF0670881
:105860006FE50A9BDD077FF510ABFFF70CBB2BB98B
:10587000012303931E464FF0660862E5139B5E1CEE
:105880004E4426EAE67303934FF0660859E55A46FC
:10589000FFF73FBB0DF1920385E7089B9AF8018063
:1058A00053F8040B0893924640EAE079FEF7FCBAFD
:1058B000DDF81C90B9F80C3043F04003A9F80C3027
:1058C000FFF7A5B81E46FEF715BC1E46FEF75EBCE8
:1058D0001E46FEF748BC4C463C444EE60223169357
:1058E000FFF7CABA1081001AE080001AC480001ABB
:1058F000C880001A2DE9F0410C46ADF58D6D8989FF
:10590000666EE589199621F002010646E069ADF858
:105910000C1017464FF48061626AADF80E5098463D
:105920001AAD0023079016A80992069300950495D6
:1059300002910591FDF75AFD43463A4669463046C5
:10594000FEF72EFA051E07DB30466946FDF728FBF9
:10595000002818BF4FF0FF35BDF80C305B0603D5AB
:10596000A38943F04003A3811698FDF741FD284623
:105970000DF58D6DBDE8F08138B5324B1B680546DD
:105980000C460BB19A6B12B3B4F90C2093B2180702
:1059900025D5206900282DD013F0010207D06369B6
:1059A00000225B42A361A26038B1002038BD990794
:1059B00058BF6269A2600028F7D1B4F90C301A060A
:1059C000F4D543F04003A3814FF0FF3038BD1846B3
:1059D000FDF742FBB4F90C2093B21807D9D4D906CD
:1059E00028D5580712D4206942F00803A3819BB23E
:1059F0000028D1D103F42072B2F5007FCCD0284624
:105A0000214601F095F9A3892069C5E7216B51B1C1
:105A100004F14003994204D02846FDF7A3FBB4F9F2
:105A20000C200023236300232069636022F02402FA
:105A30002060D9E742F0400209232B604FF0FF308D
:105A4000A28138BD3C0000102DE9F04F03690F69B9
:105A5000BB4283B0C0F28680013F01F1140600F121
:105A6000140A56F827305AF82720BC000133009456
:105A700006EB04099A425444B2FBF3F801943AD37A
:105A800000252A46B646D4465EF8044BDCF80030C2
:105A90001FFA84FB08FB0B554FEA154B240C08FB3F
:105AA00004B4ADB2551BA2B2C2EB134215FA83F394
:105AB00002EB23429BB243EA0243F1454FEA14450D
:105AC0004CF8043B4FEA2242DED2009B5AF80330E6
:105AD0008BB9019A131F9A450CD252F8043C4BB96A
